{
  "contractName": "Counter",
  "abi": [
    {
      "inputs": [],
      "payable": false,
      "stateMutability": "nonpayable",
      "type": "constructor"
    },
    {
      "constant": false,
      "inputs": [],
      "name": "increment",
      "outputs": [],
      "payable": false,
      "stateMutability": "nonpayable",
      "type": "function"
    },
    {
      "constant": true,
      "inputs": [],
      "name": "getCounter",
      "outputs": [
        {
          "name": "",
          "type": "uint256"
        }
      ],
      "payable": false,
      "stateMutability": "view",
      "type": "function"
    }
  ],
  "bytecode": "0x608060405234801561001057600080fd5b506000808190555060d2806100266000396000f3006080604052600436106049576000357c0100000000000000000000000000000000000000000000000000000000900463ffffffff1680638ada066e14604e578063d09de08a146076575b600080fd5b348015605957600080fd5b506060608a565b6040518082815260200191505060405180910390f35b348015608157600080fd5b5060886093565b005b60008054905090565b60008081548092919060010191905055505600a165627a7a72305820bb67a6c70a227a8486d6f47f89e8a2145f68017ce7afb54d4338d2453f49b3290029",
  "source": "pragma solidity ^0.4.20;\n\ncontract Counter {\n    uint counter;\n\n\tconstructor() public {\n\t\tcounter = 0; // Initialise the counter to 0\n\t}\n\n\tfunction increment() public {\n\t\tcounter++;\n\t}\n\n    function getCounter() public view returns (uint) {\n        return counter;\n    }\n}",
  "sourcePath": "/home/gjeanmart/workspace/ethereum/poa/poa_tutorial_sokol/contracts/Counter.sol",
  "compiler": {
    "name": "solc",
    "version": "0.4.24+commit.e67f0147.Emscripten.clang"
  },
  "schemaVersion": "2.0.1",
  "updatedAt": "2018-10-16T21:13:41.031Z"
}